:020000040001F9
:10B00000C8220020D9B00100F3B00100F5B0010062
:10B010000000000000000000000000000000000030
:10B02000000000000000000000000000F7B0010078
:10B030000000000000000000F9B00100FBB00100BA
:10B0400065B30100FDB001006DB40100FDB0010069
:10B05000FDB0010000000000A9B10100FDB0010039
:10B06000FDB00100FDB00100FDB00100FDB0010028
:10B07000FDB00100FDB00100FDB00100FDB0010018
:10B08000FDB00100B9B30100FDB00100FDB0010049
:10B09000D9B30100FDB00100E1B30100FDB0010032
:10B0A000FDB00100FDB00100000000000000000044
:10B0B0000000000000000000000000000000000090
:10B0C0000448854600F05EF800480047F5C20100DC
:10B0D000C046C046C82200200321094802680A432E
:10B0E0000260084802680A43026007488047074830
:10B0F0000047FEE7FEE7FEE7FEE7FEE7FEE70000AB
:10B10000240500405405004001B40100C1B0010015
:10B1100030B50B46014600202022012409E00D46EF
:10B12000D5409D4205D31D469540491B2546954077
:10B1300040191546521E002DF1DC30BD03460B436D
:10B140009B0703D009E008C9121F08C0042AFAD2DD
:10B1500003E00B780370401C491C521EF9D2704763
:10B16000D2B201E00270401C491EFBD2704700229F
:10B17000F6E710B513460A4604461946FFF7F0FFF6
:10B18000204610BD064C0125064E05E0E36807CCBD
:10B190002B430C3C98471034B442F7D3FFF794FF8D
:10B1A00080D00100A0D00100F0B50024FF268BB0B4
:10B1B0000136012527460694304601F0A9FB0028F8
:10B1C00007D054484068284203D0304601F098FB2D
:10B1D0002C43361D6D007F1CB6B2042FECD3FF2527
:10B1E0007D35284601F094FB002809D0284601F05F
:10B1F00087FB6807044306AA0121002001F06CFBCD
:10B20000454D200714D00127002627420CD0434883
:10B21000B200111808690969C004C00E8903AA5850
:10B22000890F002A00D090477F00761C042EECD3B3
:10B23000002C6DDA00200890401E63E02819403091
:10B240000778B906890E009100214156491C49D062
:10B2500009A9009801F07EF9002843D0B8090190AF
:10B26000009800F01BFE80002F580198002F02D09C
:10B27000032802D00DE0032834D1009808ABC2089F
:10B2800041079446985C490F01228A401043624668
:10B2900098540098052109078000401807210902E9
:10B2A0004018006806A98003800F0290009801F002
:10B2B00051F90028029802D0022802D012E0032897
:10B2C00010D10198032808D1029802281ED002212B
:10B2D000009801F0E3FA761CF6B2002F02D0019933
:10B2E0000098B847641C042CA8D3002E10D06A46DE
:10B2F0000121002001F0F0FA06990098884207D059
:10B300000690089800263446099097E70321DFE766
:10B310000BB0F0BD00630040401A00200065004003
:10B320008307FF22DB0E9A408907090E9940002807
:10B330000BDA0007000F0838830808489B0018182C
:10B34000C36993430B43C3617047830804489B0060
:10B350001B181868904308431860704700ED00E020
:10B3600000E400E0F8B5FF20013001F0FBF8002414
:10B3700001250E4E0E4F002807D00E480460012014
:10B38000B0607D70002000F091FDFF20053001F0DD
:10B39000E9F8002808D00748001D04600220B060CA
:10B3A000BD70012000F082FDF8BD000000030040E8
:10B3B0002C1A00200001004010B50649002008604A
:10B3C00048608860C860034940390860486001F0FF
:10B3D0007BFC10BD4011014010B501F0E7FB10BD32
:10B3E00010B506484068002805D08047002801D0E5
:10B3F00000F0E0F910BD00F07DFE10BDD018002077
:10B4000010B501F061F8002805D011490F484860D7
:10B41000C8131049886101F06DF8002802D00E4968
:10B420000120886001F07CF800280AD00B480168F0
:10B43000012904D00A49016001680129FCD1C02119
:10B44000416109490748086010BD0000DFFF07C0DF
:10B4500000050040006C00400006004000EC064083
:10B46000759300000024F400E418002010B5024990
:10B47000024801F084FC10BD881A00200020004022
:10B4800030B47446641E2578641CAB4200D21D465D
:10B49000635D5B00E31830BC184702E008C8121F68
:10B4A00008C1002AFAD170477047002001E001C1AD
:10B4B000121F002AFBD17047202804DA01218140A5
:10B4C0000348014201D0012070470020704700006E
:10B4D000FC06FFBCF7B584B006460025178815802A
:10B4E00020300290407B1446002806D03A46214680
:10B4F000059800F077FA050009D1B078002823D02C
:10B50000059886462088001DB84202D90C2007B055
:10B51000F0BD684679DF0028F9D121880320724602
:10B52000505420881921401C80B22080115420885A
:10B530007146401C80B2208041186846008801F0A6
:10B54000B2FC218840182080F078002817D021888C
:10B5500003230A46F356C91C0598B942D6D80221DE
:10B56000815421880122491C89B2218042542188BA
:10B57000491C89B2218043542088401C2080706877
:10B58000002817D021880023C3560A46C91C0598F5
:10B59000B942BBD80221815421880A22491C89B2B0
:10B5A000218042542188491C89B22180435420883B
:10B5B000401C2080308900280AD000943046019732
:10B5C000062202210830059B01F0C6FC05009ED131
:10B5D000308A00280AD000943046019707220321C0
:10B5E0001030059B01F0B8FC050090D1308B00288D
:10B5F0000AD0009430460197152214211830059B7B
:10B6000001F0AAFC050082D1306A002806D03B4632
:10B610002246059900F0B2FC0500D8D1706A0028D6
:10B6200006D03B462246059900F0CAFE0500CED161
:10B630000298007B002807D03B46224630460599F9
:10B6400001F018FA0500C2D13078002807D03B4637
:10B6500022463046059900F0E7FE0500B7D128469E
:10B6600055E7000030B5A3B0112020A908710424CB
:10B670000A221AA121A87CDF002801D000F09AF844
:10B68000194910A80187194820900A2110A881871C
:10B690003C216846FFF76BFD3C210FA8FFF767FDD3
:10B6A000022508A805776846C4701EA809900FA94E
:10B6B000684600F063F9002801D000F07BF81821FB
:10B6C0000B48FFF754FD0A480021057041600172E4
:10B6D000A0220282418223B030BD00004B686F611E
:10B6E000206E5246353100003412000071180020DF
:10B6F000A819002010B5022000F0A4F910BD000028
:10B7000070B50024064D06E06968E000085C012180
:10B7100000F0BCFF641C28788442F5D3002070BD83
:10B7200090180020F8B515460C460646052A01D2A9
:10B730000720F8BD01F082F8002803D101F050F88D
:10B740000028F6D1104900204E600C70C8608D6052
:10B7500008610E4D0DE0E000696880190091817864
:10B760006A46517000780A4A694600F0DBFF0028FB
:10B77000DFD12046641EE4B20028ECD1054A002146
:10B78000024800F023F8F8BD9018002078D001009E
:10B79000A5C0010005C00100BFF34F8F0449034855
:10B7A000C860BFF34F8F00BFFDE700000400FA053B
:10B7B00000ED00E00EB50021029000916A46019173
:10B7C0000148FFF7E9FF0EBD014000000A4B5B682E
:10B7D000002B07D0002A07D0002805D00068037C82
:10B7E000002B03D008207047072070470023037404
:10B7F0004174426118467047B4180020F8B50646F7
:10B800009007002514460F46002821D1002C1FD098
:10B8100001F0AEF80F48057045708770446004462B
:10B82000103C65602570657001250B482D0505608D
:10B8300003211420FFF774FD08480560084DAE6031
:10B8400003211120FFF76CFD6868A0600020F8BD9F
:10B850000720F8BDB418002080E200E000E100E01D
:10B8600000150140FEB51F4B5B68002B30D000284F
:10B870002ED0052901D20720FEBD4369002B27D019
:10B88000437C012B26D000270291044600256946FF
:10B8900016460D70684600F03DF801A801F046FB21
:10B8A000002819D0012101700F4944604968816066
:10B8B000029907614661C16068460A49007948708B
:10B8C0006846007800F044F801F0B2F92846FEBD61
:10B8D0000820FEBD0F46D7E768460425007800F033
:10B8E00037F8F3E7B41800200015014010B50849F7
:10B8F000496800290AD0002808D04169002905D0EC
:10B9000000210174022101F0BBF910BD082010BD17
:10B91000B418002030B5EFF3108172B6094A5468AC
:10B920000123002C04D00370002900D162B630BD81
:10B930005360054B1D68054C254015601C600022B6
:10B940000270F1E7C818002080E100E0FC06FFBCAF
:10B9500008494A68002A0CD000280AD1EFF3108069
:10B9600072B60A68044B1A6000224A60002800D1AF
:10B9700062B67047C818002000E100E0F0B50C4640
:10B9800093B01F216A461180072600279180002866
:10B9900009D0C17849070DD502A9FFF79BFD002802
:10B9A00009D102AD01E000251780002C0ED0E0780F
:10B9B000002802D0304613B0F0BD01AA0AA92046E3
:10B9C000FFF788FD0028F6D10AAA02E068460022A7
:10B9D000878068468088C3B268460088C1B228461E
:10B9E00072DFE8E77CB5054608880C4609309042CE
:10B9F00001D90C207CBD684671DF0028FAD121886E
:10BA00000820685420881B21401C80B220802954C3
:10BA1000208800A9401C80B22080401906220131F4
:10BA2000FFF78CFB20886946801D80B22080097852
:10BA3000002900D0012129542088401C20800020AA
:10BA40007CBD000005490B5C05494A68012098400F
:10BA5000034693438B601040C860704740D001009C
:10BA60000005005010B50349085C012100F028FFD3
:10BA700010BD000040D0010010B50349085C002152
:10BA800000F01EFF10BD000040D001000549095C18
:10BA900005484068C840C007C00F00D00120012100
:10BAA0004840704740D00100000500507CB500249C
:10BAB000074E2546305D0122009500231146019571
:10BAC00000F0C4FE641C082CF4D300F003F87CBD25
:10BAD00040D0010010B500242046FFF7C3FF641CCE
:10BAE000082CF9D310BD10B500242046FFF7C4FF81
:10BAF000641C082CF9D310BD0246002010B5C043C9
:10BB0000054B00215C5C944201D1084610BD491CE4
:10BB10000429F7D310BD00003CD00100F3B581B07B
:10BB20000D460198FFF7E8FF0446042813D21D488C
:10BB30001D4F1E4E002D27D0012D0DD0022D0AD1F4
:10BB400060002018C0194578002D04D0F168002944
:10BB500001D028468847FEBD610061187D5CCF1981
:10BB6000797800290BD071680A2251430F4A806806
:10BB7000921CFFF777FE002801D10198B0700B48A6
:10BB8000B97810300155DFE78068FFF7AFFE07484E
:10BB9000610061181030C919005D8D78A842D3D0BA
:10BBA000FEBD000048D00100001A00207C180020D3
:10BBB00070B50023042811D2440004190D4D012A48
:10BBC00002D101290DD0002246008019094E8019AA
:10BBD00000290CD0012906D0022906D007231846D7
:10BBE00070BD0E30C2B22A55F9E74270F7E7827095
:10BBF000F5E70000001A002010B5054A0146127A48
:10BC00000020D20702D0084600F050F810BD000016
:10BC10007C180020F8B506461F4800248660C260E4
:10BC200041600F46B00720D5002501221146284665
:10BC3000FFF7BEFF6D1C0446042D02D2002CF4D089
:10BC400013E0002C11D17A0804211448FFF76AFD93
:10BC500004000AD1FFF754FD040006D10F48104A32
:10BC60000021001FFFF7B2FD0446F00701D0FFF7E7
:10BC70001DFF002C0ED109480A4A00210C38FFF79D
:10BC8000A5FD040006D10548074A01210838FFF741
:10BC90009DFD04462046F8BD7C18002054D00100CC
:10BCA0002DBE010075C10100F5B60100F8B55D4C6F
:10BCB000054660780026002803D000206070FFF75A
:10BCC00009FF0120584F2B00FFF7DAFB18970D0DE5
:10BCD0002E3D4A5F64686F686FA9777777777797AB
:10BCE0009A9DA0A9A9950020FFF7D0FE00280AD0B0
:10BCF0000020FFF7B7FE022D02D1E120C0000BE0CB
:10BD00007D20400108E00020FFF7B6FE022D01D1A2
:10BD1000C82001E0FF20913025706421FFF7F8F979
:10BD20006168414300222BE00020FFF7AFFE0028AE
:10BD300005D00020FFF796FE19204001ECE7002017
:10BD4000FFF79AFEE4E70020FFF7A0FE002803D0EB
:10BD50000020FFF787FED3E70020FFF78DFED9E72D
:10BD60000020FFF793FE002803D00020FFF77AFEA3
:10BD700002E00020FFF780FE25706068410000228D
:10BD80003868FFF76FFD064635E00020FFF75AFEE2
:10BD9000257007E000203FE025702CE06070012056
:10BDA000FFF750FE00226168EAE760700120FFF7AC
:10BDB00049FE606881004118E1E77868FFF796FD69
:10BDC00006461120401B01D0002E03D00220FFF7B1
:10BDD00049FE10E001280BD9C82148436421FFF730
:10BDE00097F96168002241437868FFF73BFD0646FA
:10BDF0000220FFF741FE3046F8BDFFF76BFECBE7B0
:10BE0000FFF768FEC6E7FFF765FE04E0FFF762FE96
:10BE10000020FFF731FE0120FFF72EFEBCE7FFF701
:10BE200062FEB9E77C18002048D0010010B5007808
:10BE30000221FFF773FE10BD0022D24383000449A4
:10BE40000428CA5002D30818203002777047000037
:10BE5000401A0020F0B50025ED43002A02D000234F
:10BE6000042601E0042308260B4C04E09F00E75958
:10BE70007F1C04D05B1CB342F8D32846F0BD2618C3
:10BE80005DB2203635709E00A151002AF5D1E1182F
:10BE900020310877F1E70000401A00200249091814
:10BEA0002020085670470000401A002070B5084C4A
:10BEB000050009D010342168002907D008682060E7
:10BEC000496828468847F6E70834F4E770BD000063
:10BED0002C1A0020F8B52348416800293ED00E688E
:10BEE00021494C6887688078E11B0D022D0AED1C02
:10BEF000002814D101201D4A000450601B4A403A1A
:10BF000050601B49400008601A4908601A49012026
:10BF100008602F2000F02EFB124901208870B542E6
:10BF200000D23546E81900020F4B000A4033186072
:10BF30000D4A5168001B091B0902090A0002000A88
:10BF4000C91C814209D9506818602F2000F012FBEB
:10BF500001200749400480390860F8BD00F008FD61
:10BF6000F8BD0000A4180020001501404013014056
:10BF700080E200E000E100E000100140F8B5064674
:10BF8000108814468446801D0D46984201D90C2025
:10BF9000F8BD32880720062AFAD31927FF01184B6B
:10BFA000BA4201D99A42F3D171880629F0D3B94235
:10BFB00001D99942ECD19A4203D0994201D08A42E8
:10BFC000E6D805216046295420881221401C80B201
:10BFD000208029542088401C80B22080411930885C
:10BFE00000F061FF2188401880B2208041197088DC
:10BFF00000F059FF2188401820800020F8BD000083
:10C00000FFFF0000F8B500260124154D23E0696804
:10C01000F0004718387821462A698140114218D02B
:10C020008A432A6100F0D2FB3A782146EB689140BE
:10C0300019400346934099420BD17978012901D0E8
:10C04000012100E000217B684140002B01D0104617
:10C050009847761CF6B228788642D8D3F8BD0000FF
:10C060009018002010B50E4900230A784C78A2429F
:10C0700012D0521CD2B20A70022A00D10B700A7878
:10C08000074B920018339A58026088681018000213
:10C09000000A8860012010BD0360002010BD000070
:10C0A000A4180020F8B50746104E0125BD403068A1
:10C0B000FFF71CFC00280DD10D4C2069284207D148
:10C0C000384600F083FB0028E06804D0284303E0F2
:10C0D000A8432061F8BDA843E060206900222843FE
:10C0E0002061A1683068FFF7BDFBF8BD78D0010082
:10C0F00090180020F8B51E4C2078002836D0E06853
:10C10000002600280CD00025607800282ED1684633
:10C1100052DF052806D0002806D0FFF74BFB0BE0C6
:10C120000125F1E7012607E0009800F079FA21697E
:10C13000002901D000988847002D13D1607800288D
:10C1400014D1608869460880A06861DF052804D0A2
:10C15000002804D0FFF72EFB04E0012502E0E1688F
:10C16000A0688847002ECFD0002DE5D0F8BD000094
:10C17000D018002010B50448017AC90702D0007811
:10C18000FFF794FD10BD00007C180020F0B5284C8E
:10C190002146103948688B68227886469C46CF78BD
:10C1A000667836E0182353436168521CC918A37897
:10C1B000D2B2934200D100220B78022B02D0032B83
:10C1C00027D123E003464D68194603E0A94204D075
:10C1D0000B46C96900291CD0F8E7002919D08B4209
:10C1E00008D1C069002805D1124F0125BD60002586
:10C1F000AC4601270D68C969D961002909D00B68CF
:10C200005B190B6005E00174C06900E000210028A3
:10C21000F9D19642C6D10649624610398A60486013
:10C22000CF70704501D00120F0BD0020F0BD0000AE
:10C23000B418002000100140F8B52C4E0446706878
:10C240000025009041E0002C02D02046E46920E067
:10C25000264818231030017842684B43491CC9B264
:10C26000D21801708378994200D105701178506816
:10C2700001292CD1017C002929D191684160D16824
:10C2800081601169C16051698161F178002900D034
:10C2900045604368B268164F991A0902090AB94203
:10C2A00002D28268891806E0D11A09028268090A56
:10C2B0008A4202D9511A016000E0056045600121FF
:10C2C00085600174C56100F0BBFC002CBBD1074840
:10C2D0001030017840788142BAD17168009881426B
:10C2E00001D00120F8BD0020F8BD0000A4180020F6
:10C2F000FFFF7F00002386B02C4A05211846FFF778
:10C300007DFA002801D0FFF755FA002228490120C4
:10C31000FFF780FC002801D0FFF74CFA254823499D
:10C320000068059000234822483905A800F00CFC5D
:10C33000002801D0FFF73EFA00216A46084600F0C7
:10C34000EBFB002801D0FFF735FA684600F0DAFB76
:10C35000002801D0FFF72EFAFFF784F91348783050
:10C3600073DF002801D0FFF725FA0220FFF744FC15
:10C37000002801D0FFF71EFA0F4C104D260148DFB0
:10C38000002801D0FFF716FA00F092FD2968204638
:10C3900000BF00BF00BF00BF00BF00BF00BF00BFA5
:10C3A000B14200D000BF0138F2D1E8E730190020D7
:10C3B000CD0C000038D0010040420F00E4180020EE
:10C3C00070B5144682880E4605462088111D411816
:10C3D000921C994201D8FE2A01D90C2070BD521C32
:10C3E00032542088FF21401C80B2208031542088A4
:10C3F000401C80B220808119288800F054FD2188DB
:10C40000401880B22080AA88002A09D0A968002993
:10C4100008D08019FEF792FE2088A9884018208055
:10C42000002070BD072070BDF8B50F460178144696
:10C430000546012902D16878002806D02088821C90
:10C440009A422DD8012902D006E00720F8BD69786C
:10C450004118891C994223D8181A801E86B2684652
:10C4600006802188B81C081869467DDF0028EDD1B8
:10C470002878022805D169460988B14201D80921E6
:10C480000AE00821012805D16878B04202D86A463E
:10C49000108001E06846068068460088FE2801D9C1
:10C4A0000C20F8BD2288401CB8542088401C80B263
:10C4B0002080395420886946401C20800988401813
:10C4C00020800020F8BD000000B50948018C008DD7
:10C4D000C9B20006000F012907D10300FEF7D0FF03
:10C4E000040303050305012000BD002000BD00007A
:10C4F000C00F00F000B50948018C008DC9B20006DC
:10C50000000F012908D10300FEF7BAFF0506060453
:10C5100006040600012000BD002000BDC00F00F091
:10C5200000B50B48018C008DC9B20006000F01292F
:10C530000CD10300FEF7A4FF0D0A0A0A0A0A080834
:10C540000A0A0A080A0A0800012000BD002000BDEE
:10C55000C00F00F0C20843075B0F0120895C9840C0
:10C56000084070470121890740180068002800D062
:10C570000120704700280FD00849094A096800BF08
:10C5800000BF00BF00BF00BF00BF00BF00BF91429F
:10C5900000D000BF0138F2D170470000E41800203D
:10C5A0000024F40070B50E4C00252078002801D03E
:10C5B000852513E00021A16061602161E1600948E7
:10C5C00000680126304002D1032100F02FF800F06E
:10C5D000E7FA002801D1044886612670284670BD1C
:10C5E0002C1A002000E100E00005004038B50020D2
:10C5F000694608706846FFF78DF9084C20780028D6
:10C6000001D1FFF7CFFFE068401CE0600120A0707F
:10C6100068460078FFF79CF938BD00002C1A00200E
:10C6200010B5002801D1FFF741FC10BD8207D30EE1
:10C63000FF229A408907090E10B5994000280BDAAD
:10C6400003071B0F083B9C080C4BA400E318DC6994
:10C6500094430C43DC6107E08408094BA400E41810
:10C66000236893430B432360C106C90E0120884011
:10C67000044908600449086010BD000000ED00E0B6
:10C6800000E400E080E200E000E100E0F3B581B00A
:10C69000054600F055F91F4F0028284617D0FFF730
:10C6A000FDFBC0192030007F8009032802D001283B
:10C6B0000BD005E018480069E840C007C00F04D05F
:10C6C0000321284600F0EAF8FEBD0221F9E700F058
:10C6D00043F90028F8D02846FFF7E0FB0446800025
:10C6E000C11D0E4AF9318018026989B20126324310
:10C6F0000261084600F004F902980028E4D02846B8
:10C70000FFF7CCFB800038580028DDD00448A64055
:10C710004660FEBD401A0020000500500065004044
:10C7200000630040FEB5044625480E46001920214E
:10C7300041560027C8171346401C01D008273CE08B
:10C74000F27819462046FFF785FB0546401C33D09A
:10C75000B07800280BD005200007A1000918072099
:10C7600000020918086802229043086007E00021CF
:10C770007378204600910A46019100F07BF8F0782A
:10C78000002810D00F48AA001018317802690E4B0B
:10C790001A400261E206D20C8907890B0A4301693B
:10C7A0000A43026109E00648327840192030017FCF
:10C7B00092011143017700E004273846FEBD0000D6
:10C7C000401A002000650040FFE0FCFF03490969B2
:10C7D000C140C807C00F00D00120704700050050BD
:10C7E00070B5144D2879002801D0082070BD11497A
:10C7F00000204039421E0B182033401CC0B21A7072
:10C800002028F8D300242046FFF716FB641CE4B26E
:10C81000082CF8D303210620FFF708FFFF207D3006
:10C8200000F06EF801200449C0074860012028711B
:10C83000002070BD801A002000630040024800798B
:10C84000002800D001207047801A002070B55200E7
:10C850000A439900049D0A432902059E0A433104B4
:10C8600005240A4324078000072100190902401803
:10C87000026070BD70B552000A439900049D0A43DE
:10C880002902059E0A43310405240A432407800037
:10C890000721001909024018026070BD0522120725
:10C8A00080008218072000021018026803231B046E
:10C8B0009A430260026809040A430260704700005C
:10C8C000012282400348002901D082607047C26083
:10C8D000704700000005005038B5084B05241B6860
:10C8E000009324026B46411805E085005D592D191F
:10C8F0002D69401C20C28142F7D838BD74D0010098
:10C9000002494018002101607047000000600040AB
:10C91000034940180068012800D00020704700003B
:10C92000006000404058002800D0012070470322DA
:10C93000120280184068084000D0012070470000B3
:10C940000449081820214156042901DB01207047C1
:10C9500000207047401A0020044908182021415641
:10C96000042901D20120704700207047401A00209E
:10C9700070B501240B49600408600B4940108860C1
:10C98000094940398860094D6C602F20FFF7F2FD9E
:10C99000AC60074D00242F20AC60FFF7EBFDAC70BE
:10C9A00070BD000080E100E0401301400010014034
:10C9B000A418002030B5FF220523CD7D00240932C4
:10C9C0001B02C318002D8450986905D04B7ECA689D
:10C9D000D054487E401C487630BD1FB501246B46BC
:10C9E0001C701972019206C8684690471FBD00006E
:10C9F00010B50446FEF760FD00280CD0A007C00E5D
:10CA0000002C0ADA2107090F08398908144A89001D
:10CA10008918C96906E0134810BDA108124A8900A7
:10CA200089180968C1400806800F042811D200281F
:10CA30000FD002280DD00D494B68E206D20E01201E
:10CA40009040002B08D0620992008B5803438B5012
:10CA500004E00448401C10BD05490860002010BDDA
:10CA600000ED00E00120000000E400E0C818002014
:10CA700000E100E0FFB50746806A81B01446002857
:10CA80003DD0002538462030009033E00C20B96AB4
:10CA900068430E18B088801CFE2802D90C2005B00F
:10CAA000F0BD22880299401C885420881622401C20
:10CAB00080B2208002990A542088401C80B22080D5
:10CAC00002994118308800F0EEF92188401880B2B0
:10CAD0002080B288002A0AD0B16800290FD0029BBA
:10CAE000C018FEF72BFB2088B188401820806D1CF1
:10CAF0000098EDB2007BA842C8D80020CFE70720FD
:10CB0000CDE700001CB5034901910091694660DF43
:10CB10001CBD00007018002070B50E460546144676
:10CB200014211046FEF723FB012000212080216103
:10CB3000217326726572002D00D0A072002070BD96
:10CB400010B5FEF729FE10BDF8B5002903D08C07FB
:10CB50000025002C01D00720F8BD0E4E0E4FB1600D
:10CB60007280736039680124214003D00A49254648
:10CB700080310C60094910DF002803D0002DEBD074
:10CB80003C60F8BD3470FFF731FD1620FFF730FF31
:10CB9000F8BD0000D018002000E100E041CB01000A
:10CBA0000148007870470000D0180020FEB51F4CE7
:10CBB0000025A768606802906846FFF753FA019065
:10CBC000FFF7E4FA06460198002822D000230098D7
:10CBD000616817E00E680A46864202D9301A08607A
:10CBE00012E0801BF31800261660D668D169B4469F
:10CBF000002E07D0FE183602360A5660664696604A
:10CC0000D56115460029E5D128466160FFF714FB80
:10CC100006E02846FFF710FB002801D1002E02D0C5
:10CC20000298FFF757F90020E070FEBDA41800201D
:10CC300001200249000508607047000000E200E0A2
:10CC400010B50E4B5968002906D002680C68A24244
:10CC500004D8A21A0A60C161586010BD0B4604E0F6
:10CC60000B46C969121B002904D00C689442F7D303
:10CC7000A41A0C600260C161D86110BDA418002024
:10CC80007CB50D460646002469460C706846FEF7E2
:10CC900041FE01A800F04AF900280DD00570466059
:10CCA000684608490079487068460078FEF750FEEB
:10CCB000FFF7BEFF20467CBD684604240078FEF7DF
:10CCC00047FEF7E7B4180020F8B51D4D6C68002C3E
:10CCD00034D01C4800274068A968401A0602360A6A
:10CCE0002068B04218D8361AC7192246107CE46969
:10CCF00000280FD000201074EB68002B07D091693A
:10CD000050699847002805D0FEF754FD02E05169AC
:10CD100090698847002CE3D129786878814206D150
:10CD2000401CC0B26870022801D10020687004491C
:10CD30000006800D18310F50FFF77AFFF8BD000094
:10CD4000A418002000150140FF221D32002383504B
:10CD50008B8A8A68D25C8B8A5B1C8B8205210902D4
:10CD60004018C26170471FB500226B461A701972D5
:10CD700081680191827506C8684690471FBDF0B56D
:10CD80000C46012185B005464902FFF7D0FD03217D
:10CD900009026F180026002826D0FF2125312846D9
:10CDA000FFF7C0FD00281FD0FF2025302E50812026
:10CDB0008000B860A07E002801D1012068600221B7
:10CDC000684601700920C0012918086808600390AE
:10CDD000E17D68460172E0680190E675267606CC32
:10CDE0006846083C90472DE004212846FFF79FFD48
:10CDF000002827D0FF2109312846FFF793FD00289E
:10CE000020D021462846FFF7D5FDE07D617E88428F
:10CE100018D1207E002807D0617EE268E075206985
:10CE2000E060267666760AE0A07E002801D1012027
:10CE3000686081208000B860E675617EE268204607
:10CE4000FFF7CBFDFF271D3739462846FFF76AFD60
:10CE500000280FD0A08AA17D884204D2214628460E
:10CE6000FFF772FF06E0EE51A17D002902D02046B7
:10CE7000FFF779FFFF27453739462846FFF752FD70
:10CE800000280ED0EE51A07E002801D0012028609D
:10CE9000E07D002805D0E675617EE2682046FFF758
:10CEA0009CFD05B0F0BD0870000A48700220704774
:10CEB00010B51B4992B008781A4A401C0870491CEA
:10CEC00008706846028002910521818004243C217B
:10CED00003A8FEF74CF96846C4730C90002103A820
:10CEE000FEF74CFD002801D0FEF764FC74DF00283B
:10CEF00001D0FEF75FFC18210B48FEF738F90A480D
:10CF000002210170002141600172A022028241824F
:10CF100073DF002801D0FEF74DFC12B010BD0000F9
:10CF20007018002034120000A819002010B509491B
:10CF30004B788C785A1CD2B2944200D100220C78E3
:10CF4000944201D1002010BD0270486818214B4363
:10CF5000C01810BDB4180020FFB583B016460C9D54
:10CF60000D9C1F46022200950194039800F00CF8D6
:10CF7000002807D13B4610223146009501940398C2
:10CF800000F002F807B0F0BDFFB583B007460020FF
:10CF90000C9C8646268805463AE07868A900421827
:10CFA0001188684681805188C1800022694601A8A5
:10CFB00065DF002839D1684601780598814226D17D
:10CFC0007046002801D0002200E002222088891843
:10CFD00042180D998A4227D8714600290AD1401C6F
:10CFE00080B22080069A049911542088401C208029
:10CFF00001208646218806980A18694601A865DF3F
:10D00000002812D1694620880978401820806D1CBC
:10D010003888A842C1DC704600280AD02088801BCE
:10D02000401E80B2FF2802D90C2007B0F0BD06993F
:10D0300088550020F9E700000100000711121314C1
:10D040001516171800000000C0190020E019002074
:10D050000C1A0020110003001DBB01001200030088
:10D060001DBB0100130003001DBB010014000300E1
:10D070001DBB010000000050A41A002003000000A6
:10D08000A0D0010070180020780000009AB40100C0
:10D0900018D10100E8180020E0090000AAB401003E
:10D0A000000102030405060708090A000000000049
:10D0B0000000000000000000000000000000000070
:10D0C0000000000000000000000000000000000060
:10D0D0000000000000000000000000000000000050
:10D0E0000000000000000000000000000000000040
:10D0F0000000000000000000000000000000000030
:10D10000000000000000000000000000000000001F
:08D11000000000000024F400FF
:040000050001B0C185
:00000001FF
